:100000000AC1000029C1000027C1000025C100006D
:1000100023C1000021C100001FC100001DC100005C
:100020001BC1000019C1000017C1000015C100006C
:1000300013C1000011C100000C9444090C94710913
:100040000C949E090C94CB090C94F8090C94250A85
:100050000C94520A0C947F0A0C94AC0A0C94D90AA2
:10006000FBC00000F9C00000F7C00000F5C00000B0
:10007000F3C00000F1C00000EFC00000EDC00000C0
:10008000EBC00000E9C00000E7C00000E5C00000D0
:10009000E3C00000E1C00000DFC00000DDC00000E0
:1000A000DBC00000D9C00000D7C00000D5C00000F0
:1000B000D3C00000D1C00000CFC000000C94C80C19
:1000C0000C94F50C0C94220D0C944F0D0C947C0D9B
:1000D0000C94A90D0C94D60D0C94030E0C94300EB8
:1000E0000C945D0EB9C00000B7C00000B5C00000A0
:1000F000B3C00000B1C00000AFC00000ADC0000040
:10010000ABC00000A9C00000A7C00000A5C000004F
:10011000A3C00000A1C000009FC000009DC000005F
:100120009BC0000099C0000097C0000095C000006F
:1001300093C000000C94060B0C94330B0C94600BD2
:100140000C948D0B0C94BA0B0C94E70B0C94140CC0
:100150000C94410C0C946E0C0C949B0C7DC0000014
:100160007BC0000079C0000077C0000075C00000AF
:1001700073C0000071C000006FC000006DC00000BF
:100180006BC0000069C0000067C0000065C00000CF
:1001900063C0000061C000005FC000005DC00000DF
:1001A0005BC0000059C0000057C0000055C00000EF
:1001B0000C948A0E0C94B70E0C94E40E0C94110F50
:1001C0000C943E0F0C946B0F47C0000045C000001C
:1001D00043C0000041C000003FC000003DC000001F
:1001E0003BC0000039C0000037C0000035C000002F
:1001F00033C000000C940A160C94BE1629112C1161
:100200002F113211351138113B116364696E6F7013
:10021000737578585B0011241FBECFEFCDBFDFE5AB
:10022000DEBF00E00CBF11E2A0E0B0E2E4E0F4E4E5
:1002300000E00BBF02C007900D92AC33B107D9F7B5
:1002400028E2ACE3B1E201C01D92A031B207E1F7B0
:100250000E942F190C940022D3CE0F931F93CF939B
:10026000DF9300D01F92CDB7DEB764E081E490E069
:10027000FBD76CE170E082E0FDD78A836DE170E02E
:1002800082E0F8D7898389819A81019621F480E4FC
:1002900093E289839A8389819A818B839C83E0E6A8
:1002A000F0E082838C8183839FB7F894E0E5F0E0EF
:1002B0008081826080839FBF818181FFFDCF9FB756
:1002C000F89400E510E0D80116968C911697897F76
:1002D00016968C931697E0E6F0E080E885838BEB2A
:1002E000868316968C911697846016968C938081DF
:1002F000816080839FBF61E080E490E0B5D79FB7C5
:10030000F894F80180818E7F80839FBF2496CDBFB3
:10031000DEBFDF91CF911F910F9108959FB7F894A1
:10032000E82FF0E0E059FF4F6095808168236083FB
:100330009FBF0895863011F060E001C068E18091B0
:10034000510081FD26C09FB7F894E0E5F0E0808180
:10035000826080839FBF818181FFFDCF9FB7F8942A
:10036000A0E5B0E016968C911697897F16968C932F
:100370001697E0E6F0E080E885838BEB868316969F
:100380008C911697846016968C938081816080830F
:100390009FBF636084E490E067D760E480E0BECFF5
:1003A0000895CF93DF93FC01709620E030E0C62FD4
:1003B000D0E0DE01022E02C0B595A7950A94E2F7BF
:1003C000A0FD50832F5F3F4F31962830310589F7CC
:1003D00040FF0AC041FF03C0FC01658302C0FC016D
:1003E0006683FC01618302C0FC016283DF91CF91CF
:1003F000089580915026815080935026089580E082
:10040000089580E008958091F5278823CCF48076C4
:100410008032B9F58091F6278132A9F58091FB27CA
:100420009091FC27079789F5E5EFF7E28EE596E2D4
:100430008087918787E090E08287938781E00895A5
:100440008076803221F58091F627803221F0823249
:1004500001F180E008958091FB279091FC27079798
:10046000D1F4E5EFF7E28DE492E0848795878EE59D
:1004700096E28087918787E090E08287938781E08A
:10048000089580E0089580E0089580E0089580E078
:10049000089581E0089580E008950895109250260F
:1004A00010925C2610925D26E2E5F6E281EA8083F6
:1004B00080E28183128213821482158282E090E0AE
:1004C0008683978310861186EEE5F6E280E092EC53
:1004D000A1E0B0E080839183A283B383148215826C
:1004E00088E08683EDD5882329F0909150269F5F80
:1004F000909350260895FF920F931F93CF93DF930D
:1005000080913D2181116CC00E94DF13882351F03E
:10051000C0913E21D0913F210E94EC13C817D9070A
:1005200059F45EC0C0913E21D0913F210E94E71353
:10053000C817D90709F454C08FB7F894C091402167
:1005400090913C21911106C091E0C11190E09093EF
:10055000402104C091E0C11190E0C92F91E0909337
:100560003D218FBFD0E0FE01EE0FFF1FEF5BFE4D80
:10057000FF24F394808191818034914009F4F12C1F
:10058000FF2091F00E94DF13882339F00E94EC13C2
:1005900080933E2190933F210BC00E94E7138093EC
:1005A0003E2190933F2104C010923E2110923F21A2
:1005B000FE01EE0FFF1FEF5BFE4D2081318180E4D5
:1005C00091E0C89FA001C99F500DD89F500D1124E4
:1005D0004A5B5E4D06EF12E06F2D81E80E94C41465
:1005E000DF91CF911F910F91FF900895811115C058
:1005F0002091402181E090E0222311F080E090E002
:10060000880F991FFC01EF5BFE4D10821182109242
:100610003C2110923D2180E06ECF089580E06BCFA9
:10062000089580914F26815080934F2680914F26C8
:100630004BD510924E2608959FB7F8942091C7236A
:100640003091C823E091C923F0E0EE0FFF1FE6537D
:10065000FC4D81E0408151812417350708F080E08E
:100660009FBF08950F931F93CF93DF939FB7F89485
:100670002091C9238091C623811110C06091C723A6
:100680007091C823C22FD0E0FE01EE0FFF1FE6538A
:10069000FC4D408151816417750718F49FBF80E0BD
:1006A00022C01092C7231092C82381E0211180E05C
:1006B0008093C92381E08093C6239FBF80E0BCDF85
:1006C00080E491E0C89FA001C99F500DD89F500DB4
:1006D000112442535C4D08EA13E020E431E061E06C
:1006E00082E00E94C414DF91CF911F910F91089571
:1006F00010924F2610923D2110923C2110924021E1
:10070000E1E4F1E2108211821282138210923E2102
:1007100010923F2180E0EFDE1092C6231092C92391
:100720001092CA231092CB231092C7231092C82391
:1007300080E098DF882359F090914F269F5F909337
:100740004F2690914F26913011F490934E260895A4
:100750000F931F93811126C08091C923E1E081117D
:10076000E0E0842F6115710591F4F0E020E431E0C0
:10077000E29FA001E39F500DF29F500D11244253C0
:100780005C4D08EA13E061E00E94C4140BC0F0E085
:10079000EE0FFF1FE653FC4D608371831092C6235A
:1007A00080E060DF1F910F910895EF92FF921F93F9
:1007B000CF93DF9311E080916426893009F010E037
:1007C00060E070E0C0E4D1E09FB7F8942091C723C7
:1007D0003091C8238091C9239FBF90E0FC01EE0FA8
:1007E000FF1FE653FC4D408151812417350730F03F
:1007F00080914E268111E8CF90E01EC08C9FF001C1
:100800008D9FF00D9C9FF00D1124E20FF31FE2531A
:10081000FC4D80817B01E82A2F5F3F4F2093C72347
:100820003093C82380E01EDF112321F07E2D662740
:1008300010E0CACF8E2D9F2DDF91CF911F91FF9099
:10084000EF90089580E0B1CF0895E0914021F0E06D
:10085000EE0FFF1FEF5BFE4D808191818034914050
:1008600019F580913C21811110C08FB7F8949091B7
:100870003D21911109C091E090933C2120914021AC
:10088000211190E0909340218FBFE0914021F0E052
:10089000EE0FFF1FEF5BFE4D81E0208131812034A0
:1008A000314019F480E0089581E00895FF920F939C
:1008B0001F93CF93DF93F62E172F01E080916426CC
:1008C000893009F000E0C0E4D1E080E0BEDF8111B2
:1008D00007C080914E268111F8CF80E090E028C0BB
:1008E0004FB7F8942091402130E0F901EE0FFF1F3F
:1008F000EF5BFE4D80819181BC016F5F7F4F608314
:1009000071832C9FF0012D9FF00D3C9FF00D112461
:100910008E0F9F1FFC01EA5BFE4DF0824FBF00234C
:1009200029F0F12E110F110B00E0CFCF81E090E004
:10093000DF91CF911F910F91FF900895BC0180E04E
:10094000B5CF0895E0916A26F0916B260190F08171
:10095000E02D228133812E0F3F1FFC014081E40FE7
:10096000F11DE217F307B8F481818430B9F08613E2
:1009700009C005C081818430A1F0861303C08E2F89
:100980009F2F08958081E80FF11DE217F30790F380
:1009900080E090E0089580E090E0089580E090E0AD
:1009A000089580E090E008958091F7278F770C9468
:1009B000E113089590916C26992381F1E0916A26C4
:1009C000F0916B260190F081E02D9481891740F51C
:1009D000E0936826F0936926228133812E0F3F1F12
:1009E000E217F307F8F49181943061F4928198133F
:1009F00009C09381961306C0E0936826F093692698
:100A000081E008959081E90FF11DE217F30758F393
:100A1000E0936826F093692680E0089580E00895C9
:100A200080E0089580E00895EF92FF921F93CF93A6
:100A3000DF93C82F60E0BEDF182F882381F1A091DB
:100A40006A26B0916B26EC2FF0E0EE0FFF1F129696
:100A50008D919C911397E80FF91FE080F180D701E9
:100A60001696ED91FC9117971995682F8C2FA2DFA0
:100A7000182F8823A1F0C0916826D091692665E0DF
:100A8000CE0160DFEC01892B21F08A810E94C7151D
:100A9000F6CFD7011296ED91FC9113971995812FFE
:100AA000DF91CF911F91FF90EF9008951F93CF9307
:100AB000DF93182F7FDF882341F1C0916826D09102
:100AC000692665E0CE013EDFEC01892B49F04C81BF
:100AD0005D816B818A810E94F6138111F2CF15C06E
:100AE000A0916A26B0916B26E12FF0E0EE0FFF1F78
:100AF00012968D919C911397E80FF91F0190F08148
:100B0000E02D0190F081E02D1995DF91CF911F919B
:100B100008950C944B130895CF9380916C268823ED
:100B2000C1F0E0916A26F0916B260190F081E02DF2
:100B30008481882371F0C0E08C2F76DFCF5FE09155
:100B40006A26F0916B260190F081E02D8481C81710
:100B500098F310926C2681E090E080936D2690933C
:100B60006E26CF910895CF9380916C26882349F10A
:100B7000A0916A26B0916B26ED91FC91119784812A
:100B80008823F9F0C0E0EC2FF0E0EE0FFF1F129683
:100B90008D919C911397E80FF91F0190F081E02D42
:100BA0000084F185E02D309709F01995CF5FA09171
:100BB0006A26B0916B26ED91FC9111978481C8173C
:100BC00010F3CF9108950F931F93CF93DF93E5EF29
:100BD000F7E212861386148615861686178680819C
:100BE00088230CF01EC22091FB273091FC27211591
:100BF000310509F01BC211C28F7109F096C09091A6
:100C0000F627963081F0983009F484C091118DC098
:100C10002230310509F0C0C162E070E08DE696E255
:100C20000E94EF1308C28091F7279091F827292F8F
:100C300033272230310589F02330310579F1213015
:100C4000310509F0A0C180911A2090911B20DC0190
:100C50006C9170E00E94EF134EC0E0911A20F09169
:100C60001B202189821708F097C19927880F991FA7
:100C7000880F991FE0911C20F0911D20E80FF91FAB
:100C800080819181FC01628173810E94EF13E09168
:100C9000FD27F091FE2782E081832DC099278130C6
:100CA000910579F038F0029709F076C180E990E279
:100CB00023E00AC064E070E08EE990E20E94EF1346
:100CC0001AC084E990E229E0382FAEE7B0E2E82FBD
:100CD000F92F819190E08D939D938E2F831B821726
:100CE000C0F3622F660F6E5F60937C2070E08CE72C
:100CF00090E20E94EF13E5EFF7E28681978122856B
:100D000033858217930708F096C18093FF2790934D
:100D1000002891C12130310509F03EC161E070E049
:100D20008CE696E20E94EF1386C18130E9F590913E
:100D3000F6279A30C9F52130310509F02DC180918F
:100D40006C26882309F428C1C091F927D091FA278D
:100D500000916A2610916B26D801ED91FC91848157
:100D6000C81708F019C160E08C2F24DE882309F42D
:100D700013C1CE019927880F991FD8011296ED91C2
:100D8000FC911397E80FF91F0190F081E02D868107
:100D90009781FC0119958093672661E070E087E6F2
:100DA00096E20E94EF1347C1823009F0F5C08091AE
:100DB000F6278111EAC02230310509F0EDC080919B
:100DC000F9270E94741490E080936526909366261C
:100DD00062E070E085E696E20E94EF132CC18F710D
:100DE00009F084C09091F627933009F4D0C018F42C
:100DF0009130A1F07BC0953019F0993039F176C06F
:100E00008091FB279091FC27892B09F0C5C084EDC8
:100E100094E080930128909302280DC18091FB27D4
:100E20009091FC27892B09F0B7C08091F72790910A
:100E3000F827019709F0B0C080916D2690916E2639
:100E40008D7F80936D2690936E26F5C08091FB2751
:100E50009091FC27892B09F09FC00E94E4138823FE
:100E600009F49AC02091F7273091F8273327E091B1
:100E70001A20F0911B20818990E08217930708F4D3
:100E80008BC04ADE8091F7279091F82780936C26DB
:100E9000882309F4D0C099278150904C880F991F5E
:100EA000880F991FE0911C20F0911D20E80FF91F79
:100EB000E0936A26F0936B260190F081E02D848107
:100EC000882309F4B8C0C0E060E08C2FEFDD8823F0
:100ED00009F462C0CF5FE0916A26F0916B26019021
:100EE000F081E02D8481C81778F3A5C08130E1F44A
:100EF0009091F6279B30C1F48091FB279091FC27BD
:100F0000892B09F049C080916C26882309F444C0DC
:100F1000E5EFF7E2C481D2818C2F86DD8823E1F1F1
:100F20006D2F8C2FC3DD36C08230B1F58091F6274E
:100F3000813019F0833091F02CC08091FB27909183
:100F4000FC27892B49F58091F7279091F827892B69
:100F500019F58091F9270E948F141CC08091FB27FE
:100F60009091FC27892BC1F48091F7279091F82765
:100F7000892B91F4C5EFD7E28C810E947E158C817C
:100F80000E94E31507C080E005C080E003C080E058
:100F900001C080E0811150C08091F5278F718130B0
:100FA00009F03DC080916C26882399F1C091F92702
:100FB000D091FA2700916A2610916B26D801ED9105
:100FC000FC918481C81738F560E08C2FF3DC88230E
:100FD00099F1FE01FF27CF01880F991FD8011296C2
:100FE000ED91FC911397E80FF91F00811181D80151
:100FF0001696ED91FC9117971995682F8C2FDADCD6
:101000008823D1F0D8011496ED91FC91159719958C
:1010100013C080E011C080E00FC080E00DC080E010
:101020000BC0982F907609F0B7CFD9CE982F907635
:1010300009F0B2CFE1CD81E0DF91CF911F910F9107
:101040000895CF93DF931F92CDB7DEB78091F3273A
:101050009091F427E091EF27F091F027BE016F5FA8
:101060007F4F19958981082E000C990B0F90DF9105
:10107000CF91089580916F26882381F0862F082EC6
:10108000000C990B5BDC21E030E0892B11F020E0B3
:1010900030E088279927821B930B089580E090E029
:1010A0000895CF93DF9380916F26811103C0FB01D8
:1010B000108203C0EB01C6DB8883DF91CF910895D6
:1010C00081E080936F26089510926F260895109204
:1010D000F3271092F4278AE398E08093F127909306
:1010E000F22781E598E08093EF279093F02711DDB8
:1010F0000E94BA13811102C00E94BC1361E278E021
:1011000085E898E00C94801A0895682F8091F32761
:101110009091F427E091F127F091F2271995992306
:101120001CF081E090E008958FEF9FEF089543E079
:1011300050E061E080EE97E034D943E050E062E0B7
:1011400080EE97E02ED943E050E060E180E696E043
:1011500028D941E050E460E280E696E022D940E000
:101160005BE160E280E896E01CD940E05BE162E090
:1011700080EA96E016D940E05BE164E080EA96E020
:1011800010D943E050E062E080E696E00AD943E0FF
:1011900050E068E080E696E004D943E050E068E083
:1011A00080EA96E0FED843E050E061E080E696E019
:1011B000F8D843E050E068E080E096E0F2D841E003
:1011C00050E060E180E896E0ECD843E050E062E077
:1011D00080E696E0E6D843E050E068E080E696E0FE
:1011E000E0D840E050E064E080E696E0DAD843E002
:1011F00050E060E180EA96E0D4D840E050E061E061
:1012000080E096E0CED840E050E064E080E096E0F8
:10121000C8D840E050E062E080E296E0C2D843E007
:1012200050E068E080E496E0BCD840E050E064E044
:1012300080E496E0B6D843E050E068E080E696E0CF
:10124000B0D840E050E064E080E696E0AAD843E001
:1012500050E068E080E896E0A4D840E050E064E028
:1012600080E896E09EC808951BBEFC0128ED24BFCF
:10127000608308954091CA01E62FF72F8093CA0139
:1012800084914093CA0108951F920F920FB60F9256
:1012900011240BB60F922F933F934F935F936F934D
:1012A0007F938F939F93AF93BF93EF93FF93E091BF
:1012B000B626F091B726309709F01995FF91EF9176
:1012C000BF91AF919F918F917F916F915F914F915E
:1012D0003F912F910F900BBE0F900FBE0F901F905C
:1012E00018951F920F920FB60F9211240BB60F9202
:1012F0002F933F934F935F936F937F938F939F931E
:10130000AF93BF93EF93FF93E091B426F091B5268E
:10131000309709F01995FF91EF91BF91AF919F918F
:101320008F917F916F915F914F913F912F910F908E
:101330000BBE0F900FBE0F901F9018951F920F922B
:101340000FB60F9211240BB60F922F933F934F932A
:101350005F936F937F938F939F93AF93BF93EF931D
:10136000FF93E091B226F091B326309709F01995DA
:10137000FF91EF91BF91AF919F918F917F916F916D
:101380005F914F913F912F910F900BBE0F900FBE29
:101390000F901F9018951F920F920FB60F92112465
:1013A0000BB60F922F933F934F935F936F937F935F
:1013B0008F939F93AF93BF93EF93FF93E091B026EA
:1013C000F091B126309709F01995FF91EF91BF91F7
:1013D000AF919F918F917F916F915F914F913F91CD
:1013E0002F910F900BBE0F900FBE0F901F9018956E
:1013F0001F920F920FB60F9211240BB60F922F93DC
:101400003F934F935F936F937F938F939F93AF938C
:10141000BF93EF93FF93E091AE26F091AF26309704
:1014200009F01995FF91EF91BF91AF919F918F9125
:101430007F916F915F914F913F912F910F900BBED4
:101440000F900FBE0F901F9018951F920F920FB61E
:101450000F9211240BB60F922F933F934F935F93EC
:101460006F937F938F939F93AF93BF93EF93FF936C
:10147000E091AC26F091AD26309709F01995FF91D7
:10148000EF91BF91AF919F918F917F916F915F91FC
:101490004F913F912F910F900BBE0F900FBE0F9069
:1014A0001F9018951F920F920FB60F9211240BB632
:1014B0000F922F933F934F935F936F937F938F93ED
:1014C0009F93AF93BF93EF93FF93E091AA26F09180
:1014D000AB26309709F01995FF91EF91BF91AF912D
:1014E0009F918F917F916F915F914F913F912F913C
:1014F0000F900BBE0F900FBE0F901F9018951F926C
:101500000F920FB60F9211240BB60F922F933F93A9
:101510004F935F936F937F938F939F93AF93BF93FB
:10152000EF93FF93E091A826F091A926309709F058
:101530001995FF91EF91BF91AF919F918F917F91FD
:101540006F915F914F913F912F910F900BBE0F9034
:101550000FBE0F901F9018951F920F920FB60F920B
:1015600011240BB60F922F933F934F935F936F937A
:101570007F938F939F93AF93BF93EF93FF93E091EC
:10158000A626F091A726309709F01995FF91EF91C3
:10159000BF91AF919F918F917F916F915F914F918B
:1015A0003F912F910F900BBE0F900FBE0F901F9089
:1015B00018951F920F920FB60F9211240BB60F922F
:1015C0002F933F934F935F936F937F938F939F934B
:1015D000AF93BF93EF93FF93E091A426F091A526DC
:1015E000309709F01995FF91EF91BF91AF919F91BD
:1015F0008F917F916F915F914F913F912F910F90BC
:101600000BBE0F900FBE0F901F9018951F920F9258
:101610000FB60F9211240BB60F922F933F934F9357
:101620005F936F937F938F939F93AF93BF93EF934A
:10163000FF93E091A226F091A326309709F0199527
:10164000FF91EF91BF91AF919F918F917F916F919A
:101650005F914F913F912F910F900BBE0F900FBE56
:101660000F901F9018951F920F920FB60F92112492
:101670000BB60F922F933F934F935F936F937F938C
:101680008F939F93AF93BF93EF93FF93E091A02627
:10169000F091A126309709F01995FF91EF91BF9134
:1016A000AF919F918F917F916F915F914F913F91FA
:1016B0002F910F900BBE0F900FBE0F901F9018959B
:1016C0001F920F920FB60F9211240BB60F922F9309
:1016D0003F934F935F936F937F938F939F93AF93BA
:1016E000BF93EF93FF93E0919E26F0919F26309752
:1016F00009F01995FF91EF91BF91AF919F918F9153
:101700007F916F915F914F913F912F910F900BBE01
:101710000F900FBE0F901F9018951F920F920FB64B
:101720000F9211240BB60F922F933F934F935F9319
:101730006F937F938F939F93AF93BF93EF93FF9399
:10174000E0919C26F0919D26309709F01995FF9124
:10175000EF91BF91AF919F918F917F916F915F9129
:101760004F913F912F910F900BBE0F900FBE0F9096
:101770001F9018951F920F920FB60F9211240BB65F
:101780000F922F933F934F935F936F937F938F931A
:101790009F93AF93BF93EF93FF93E0919A26F091BD
:1017A0009B26309709F01995FF91EF91BF91AF916A
:1017B0009F918F917F916F915F914F913F912F9169
:1017C0000F900BBE0F900FBE0F901F9018951F9299
:1017D0000F920FB60F9211240BB60F922F933F93D7
:1017E0004F935F936F937F938F939F93AF93BF9329
:1017F000EF93FF93E0919826F0919926309709F0A6
:101800001995FF91EF91BF91AF919F918F917F912A
:101810006F915F914F913F912F910F900BBE0F9061
:101820000FBE0F901F9018951F920F920FB60F9238
:1018300011240BB60F922F933F934F935F936F93A7
:101840007F938F939F93AF93BF93EF93FF93E09119
:101850009626F0919726309709F01995FF91EF9110
:10186000BF91AF919F918F917F916F915F914F91B8
:101870003F912F910F900BBE0F900FBE0F901F90B6
:1018800018951F920F920FB60F9211240BB60F925C
:101890002F933F934F935F936F937F938F939F9378
:1018A000AF93BF93EF93FF93E0919426F091952629
:1018B000309709F01995FF91EF91BF91AF919F91EA
:1018C0008F917F916F915F914F913F912F910F90E9
:1018D0000BBE0F900FBE0F901F9018951F920F9286
:1018E0000FB60F9211240BB60F922F933F934F9385
:1018F0005F936F937F938F939F93AF93BF93EF9378
:10190000FF93E0919226F0919326309709F0199574
:10191000FF91EF91BF91AF919F918F917F916F91C7
:101920005F914F913F912F910F900BBE0F900FBE83
:101930000F901F9018951F920F920FB60F921124BF
:101940000BB60F922F933F934F935F936F937F93B9
:101950008F939F93AF93BF93EF93FF93E091902664
:10196000F0919126309709F01995FF91EF91BF9171
:10197000AF919F918F917F916F915F914F913F9127
:101980002F910F900BBE0F900FBE0F901F901895C8
:101990001F920F920FB60F9211240BB60F922F9336
:1019A0003F934F935F936F937F938F939F93AF93E7
:1019B000BF93EF93FF93E0918E26F0918F2630979F
:1019C00009F01995FF91EF91BF91AF919F918F9180
:1019D0007F916F915F914F913F912F910F900BBE2F
:1019E0000F900FBE0F901F9018951F920F920FB679
:1019F0000F9211240BB60F922F933F934F935F9347
:101A00006F937F938F939F93AF93BF93EF93FF93C6
:101A1000E0918C26F0918D26309709F01995FF9171
:101A2000EF91BF91AF919F918F917F916F915F9156
:101A30004F913F912F910F900BBE0F900FBE0F90C3
:101A40001F9018951F920F920FB60F9211240BB68C
:101A50000F922F933F934F935F936F937F938F9347
:101A60009F93AF93BF93EF93FF93E0918A26F091FA
:101A70008B26309709F01995FF91EF91BF91AF91A7
:101A80009F918F917F916F915F914F913F912F9196
:101A90000F900BBE0F900FBE0F901F9018951F92C6
:101AA0000F920FB60F9211240BB60F922F933F9304
:101AB0004F935F936F937F938F939F93AF93BF9356
:101AC000EF93FF93E0918826F0918926309709F0F3
:101AD0001995FF91EF91BF91AF919F918F917F9158
:101AE0006F915F914F913F912F910F900BBE0F908F
:101AF0000FBE0F901F9018951F920F920FB60F9266
:101B000011240BB60F922F933F934F935F936F93D4
:101B10007F938F939F93AF93BF93EF93FF93E09146
:101B20008626F0918726309709F01995FF91EF915D
:101B3000BF91AF919F918F917F916F915F914F91E5
:101B40003F912F910F900BBE0F900FBE0F901F90E3
:101B500018951F920F920FB60F9211240BB60F9289
:101B60002F933F934F935F936F937F938F939F93A5
:101B7000AF93BF93EF93FF93E0918426F091852676
:101B8000309709F01995FF91EF91BF91AF919F9117
:101B90008F917F916F915F914F913F912F910F9016
:101BA0000BBE0F900FBE0F901F9018951F920F92B3
:101BB0000FB60F9211240BB60F922F933F934F93B2
:101BC0005F936F937F938F939F93AF93BF93EF93A5
:101BD000FF93E0918226F0918326309709F01995C2
:101BE000FF91EF91BF91AF919F918F917F916F91F5
:101BF0005F914F913F912F910F900BBE0F900FBEB1
:101C00000F901F9018951F920F920FB60F921124EC
:101C10000BB60F922F933F934F935F936F937F93E6
:101C20008F939F93AF93BF93EF93FF93E0918026A1
:101C3000F0918126309709F01995FF91EF91BF91AE
:101C4000AF919F918F917F916F915F914F913F9154
:101C50002F910F900BBE0F900FBE0F901F901895F5
:101C60001F920F920FB60F9211240BB60F922F9363
:101C70003F934F935F936F937F938F939F93AF9314
:101C8000BF93EF93FF93E0917E26F0917F263097EC
:101C900009F01995FF91EF91BF91AF919F918F91AD
:101CA0007F916F915F914F913F912F910F900BBE5C
:101CB0000F900FBE0F901F9018951F920F920FB6A6
:101CC0000F9211240BB60F922F933F934F935F9374
:101CD0006F937F938F939F93AF93BF93EF93FF93F4
:101CE000E0917C26F0917D26309709F01995FF91BF
:101CF000EF91BF91AF919F918F917F916F915F9184
:101D00004F913F912F910F900BBE0F900FBE0F90F0
:101D10001F9018951F920F920FB60F9211240BB6B9
:101D20000F922F933F934F935F936F937F938F9374
:101D30009F93AF93BF93EF93FF93E0917A26F09137
:101D40007B26309709F01995FF91EF91BF91AF91E4
:101D50009F918F917F916F915F914F913F912F91C3
:101D60000F900BBE0F900FBE0F901F9018951F92F3
:101D70000F920FB60F9211240BB60F922F933F9331
:101D80004F935F936F937F938F939F93AF93BF9383
:101D9000EF93FF93E0917826F0917926309709F040
:101DA0001995FF91EF91BF91AF919F918F917F9185
:101DB0006F915F914F913F912F910F900BBE0F90BC
:101DC0000FBE0F901F9018951F920F920FB60F9293
:101DD00011240BB60F922F933F934F935F936F9302
:101DE0007F938F939F93AF93BF93EF93FF93E09174
:101DF0007626F0917726309709F01995FF91EF91AB
:101E0000BF91AF919F918F917F916F915F914F9112
:101E10003F912F910F900BBE0F900FBE0F901F9010
:101E200018951F920F920FB60F9211240BB60F92B6
:101E30002F933F934F935F936F937F938F939F93D2
:101E4000AF93BF93EF93FF93E0917426F0917526C3
:101E5000309709F01995FF91EF91BF91AF919F9144
:101E60008F917F916F915F914F913F912F910F9043
:101E70000BBE0F900FBE0F901F9018951F920F92E0
:101E80000FB60F9211240BB60F922F933F934F93DF
:101E90005F936F937F938F939F93AF93BF93EF93D2
:101EA000FF93E0917226F0917326309709F019950F
:101EB000FF91EF91BF91AF919F918F917F916F9122
:101EC0005F914F913F912F910F900BBE0F900FBEDE
:101ED0000F901F9018951F920F920FB60F9211241A
:101EE0000BB60F922F933F934F935F936F937F9314
:101EF0008F939F93AF93BF93EF93FF93E0917026DF
:101F0000F0917126309709F01995FF91EF91BF91EB
:101F1000AF919F918F917F916F915F914F913F9181
:101F20002F910F900BBE0F900FBE0F901F90189522
:101F3000CF93CFB7F894282F392F211588E0380791
:101F400049F461E083E00E948E0164E083E00E9436
:101F50008E014FC0203488E0380749F462E083E006
:101F60000E948E0164E083E00E948E0142C0211530
:101F700089E0380749F461E084E00E948E0164E062
:101F800084E00E948E0135C0203489E0380749F48E
:101F900062E084E00E948E0164E084E00E948E0191
:101FA00028C021158AE0380749F461E085E00E94E5
:101FB0008E0164E085E00E948E011BC020348AE01F
:101FC000380749F462E085E00E948E0164E085E014
:101FD0000E948E010EC021153B4049F461E086E06D
:101FE0000E948E0164E086E00E948E0102C0CFBF95
:101FF00009C09FB7F894E9EEF7E281818F5F818392
:102000009FBFCFBFCF910895811528E0920729F493
:102010006093B6267093B7260895803428E092071F
:1020200029F46093AA267093AB260895811529E0C0
:10203000920729F46093A2267093A3260895803412
:1020400029E0920729F460939626709397260895C5
:1020500081152AE0920729F460938E2670938F26CB
:10206000089580342AE0920729F4609382267093C1
:102070008326089581159B4021F460937A267093FE
:102080007B260895811118C09091E427992389F047
:102090002FB7F894E9EEF7E29181915091832FBF29
:1020A00008C02FB7F894E9EEF7E291819F5F918322
:1020B0002FBF8093E42708959091E427992389F313
:1020C000F8CF0F93E8ECF4E080818F7D80838081EE
:1020D0008F7D8083E8EBF7E202E005931092BA2748
:1020E0001092BB2700E2069300E40693E0EBF7E2D0
:1020F00000E2069300E40693E5EFF7E21486158606
:1021000016861786128613861092A1270F910895BE
:102110000F9385E08093A127E9EBF7E204E00593B4
:10212000E1EBF7E204E005930F9108950F9383E04C
:102130008093A1271092BA271092BB27E8EBF7E211
:1021400002E006930F910895E0910128F091022892
:10215000309709F0199508950F93CF93DF938091ED
:10216000A127833019F4F0DFACDF5EC080919D279A
:1021700090919E27C091FF27D0910028C81BD90BB2
:1021800071F520919F273091A027820F931F809394
:102190009F279093A0272091FB273091FC2782173F
:1021A000930721F08091B826882341F084E0809342
:1021B000A127E0EBF7E202E0069336C0E0910328A6
:1021C000F0910428309799F01995882381F01092A6
:1021D0009D2710929E27C091FF27D0910028C034E0
:1021E000D10528F01092B826C0E4D0E003C081E009
:1021F0008093B826E4EAF7E2C68BD78B80919D27BF
:1022000090919E272091FD273091FE27280F391F9E
:10221000208F318FC80FD91FC0939D27D0939E2741
:10222000E8EBF7E202E00693DF91CF910F9108957A
:10223000FC018181E82FE7708E2F90E0FC0131973F
:10224000E730F105D8F48827E250FF4F8F4F0C9408
:10225000601A80E190E0089580E290E0089580E4C3
:1022600090E0089580E890E0089580E091E008957E
:1022700080E092E008958FEF93E0089588E090E089
:102280000895282F2F7030E0220F331F082E000CE6
:10229000990B8827990F881F9927820F931F029700
:1022A0009C01220F331F220F331F220F331F820F77
:1022B000931F875C984D08950F93CF938091CC0422
:1022C00080FF63C081E08093CC04E0EBF7E200E89C
:1022D0000693E8EBF7E200E806938093CA04E0EB8C
:1022E000F7E200E106938091A127882329F083502B
:1022F000823008F429DFE5DE8091B2279091B32780
:10230000089709F044C088E0EDE5F7E2A5EFB7E2F1
:1023100001900D928A95E1F7E8ECF4E0808180620B
:1023200080838081806280830E94E305C82F8111B1
:1023300003C0EEDEC1E02CC08091F52788236CF449
:1023400010929F271092A02710929D2710929E27EF
:1023500082E08093A12700DF1BC08091FB27909132
:10236000FC27892B11F4E2DE13C010929F271092F4
:10237000A02710929D2710929E2781E08093A1278D
:10238000E0EBF7E202E0069303C0C0E001C0C1E069
:102390008C2FCF910F9108958F929F92AF92BF9201
:1023A000DF92EF92FF920F931F93CF93DF93D82E7C
:1023B00068DF8C01BD2CBB1CBB24BB1CCD2DCF709A
:1023C000D0E0CC0FDD1FCB0DD11DCE01880F991FA2
:1023D000880F991F880F991F9C012055384D79014E
:1023E000C90126DF4C01BB2009F47BC0FE01EE0FC2
:1023F000FF1FEE0FFF1FEE0FFF1FEC55F84D228958
:102400003389D80115968D919C911697820F931F51
:1024100015968D939C93169713962D913C91149736
:102420008217930709F447C0281B390B2115B4E024
:102430003B0740F02FEF33E0C901B4010E94391A85
:10244000281B390BF801808181FF0AC0C901B40142
:102450000E94391A41E0892B09F040E0842F01C025
:1024600080E0D8019C9180FB91F99C93FE01EE0FD6
:10247000FF1FEE0FFF1FEE0FFF1FEC55F84D128AE6
:10248000138A2687378711962D913C9112971596BE
:102490008D919C911697820F931FCC0FDD1FCC0F4F
:1024A000DD1FCC0FDD1FCC54D84D88839983F701F5
:1024B00002E00693E4C0D8018C9181FFCDC08D7FEE
:1024C0008C93CC0FDD1FCC0FDD1FCC0FDD1FCC5547
:1024D000D84D1A8A1B8A1E861F86F70102E00693D2
:1024E000CEC0FE01EE0FFF1FEE0FFF1FEE0FFF1F0E
:1024F000EC55F84DA684B784D8018C9182FF19C0A1
:102500001196ED91FC91129715962D913C9116978D
:1025100013968D919C911497B401ABD7B0E4DB9ED8
:10252000B00111246758794DAC01CF01820F931F80
:10253000DED7F801258136812A0D3B1D25833683A0
:10254000838194818217930768F485839683CC0FE7
:10255000DD1FCC0FDD1FCC0FDD1FCC55D84D8A8978
:102560009B897AC0FE01EE0FFF1FEE0FFF1FEE0FDB
:10257000FF1FEC55F84D428953894A155B0509F058
:102580006BC02817390709F467C0AC01421B530B15
:102590009A01211554E0350750F02FEF33E0C901BF
:1025A000B40167D7D901A81BB90BCD0107C0C90178
:1025B000B4015FD7F901E81BF90BCF01FE01EE0F63
:1025C000FF1FEE0FFF1FEE0FFF1FEC55F84D168695
:1025D00017868815990500F5D8018C9184608C9335
:1025E000B0E4DB9EC00111248758994DFE01EE0F27
:1025F000FF1FEE0FFF1FEE0FFF1FEC54F84D8083FF
:102600009183CC0FDD1FCC0FDD1FCC0FDD1FCC5510
:10261000D84D8A8A9B8A1CC0F8014181528125814C
:102620003681240F351FFE01EE0FFF1FEE0FFF1F37
:10263000EE0FFF1FEC54F84D20833183CC0FDD1FCC
:10264000CC0FDD1FCC0FDD1FCC55D84D8A8B9B8B5B
:10265000F70102E0069313C0D8018C9180FF0FC0F0
:102660008E7F8C931796ED91FC911897309739F0E7
:1026700015966D917C9116974D2D80E01995DF91FF
:10268000CF911F910F91FF90EF90DF90BF90AF908F
:102690009F908F900895CF93DF93C0E6D0E018828B
:1026A00080E30E949A01E0ECF4E080818064808302
:1026B00081E08883CFB7F894E4EAF7E21586158ABB
:1026C000158E15A215A615AAE9E3F7E280818E7F83
:1026D0008083E2E4F7E280818E7F8083EBE4F7E29F
:1026E00080818E7F8083E4E5F7E280818E7F808326
:1026F0006AE170E082E00E943A098F3F19F080930E
:10270000FA0403C08FE18093FA046BE170E082E089
:102710000E943A098F3F19F08093FB0403C08FE1B8
:102720008093FB04E0ECF4E0808182608083808110
:102730008068808380818061808380EB97E28683DC
:1027400097838081806280838FEF8093C504E8EC5B
:10275000F4E08081816080831092E4279FB7F89431
:10276000E9EEF7E285818F5F85839FBFCFBFDF9161
:10277000CF91089580E00895CF93CFB7F89481E08A
:1027800081DCEAECF4E080E4808380E28083E1ECA9
:10279000F4E0808181608083A9ECB4E08C91826058
:1027A0008C93E8ECF4E08081806480838C9181607C
:1027B0008C93808180688083CFBFCF91089580E023
:1027C00008958093C30408958091C304089580916F
:1027D000E0279091E127089580E090E00895E5EFEB
:1027E000F7E280879187628773870895282F2F707B
:1027F00030E0220F331F082E000C990B8827990F09
:10280000881F9927820F931FFC01EE0FFF1FEE0F09
:10281000FF1FEE0FFF1FEC55F84D2585207C09F0BA
:102820005FC06370613019F020F420E403C020EC35
:1028300001C020E840385105E9F050F4403251051C
:10284000A9F040345105A1F040315105D9F40CC034
:10285000411532E0530791F04F3F33E0530781F0C9
:102860004115514079F408C041E00DC042E00BC071
:1028700043E009C044E007C045E005C046E003C0AE
:1028800047E001C040E0FC01EE0FFF1FEE0FFF1F0D
:10289000EE0FFF1FEC55F84D158636E03487242BDC
:1028A00025872585207C203C69F4FC01EE0FFF1F65
:1028B000EE0FFF1FEE0FFF1FEC55F84D258527701B
:1028C000273081F0880F991F880F991F880F991F53
:1028D000FC01EC55F84D85858062858781E008957F
:1028E00080E0089581E00895E82FEF70F0E0EE0FAA
:1028F000FF1F082E000C990B8827990F881F992716
:10290000E80FF91FEE0FFF1FEE0FFF1FEE0FFF1F67
:10291000EC55F84D858582FB882780F90895282F8E
:102920002F7030E0A901440F551F282F082E000CEE
:10293000330B2227330F221F3327240F351FF901B2
:10294000EE0FFF1FEE0FFF1FEE0FFF1FEC55F84DB0
:10295000958592FF17C0220F331F220F331F220FBE
:10296000331FF901EC55F84D95859B7F958789DCE0
:10297000FC01808180FF06C08E7F80830780F08508
:10298000E02D199581E008957F928F929F92AF92EA
:10299000BF92CF92DF92EF92FF920F931F93CF934C
:1029A000DF93982E862E6A0179016BDC5C01792C0D
:1029B000771C7724771CC92DCF70D0E0CC0FDD1F9A
:1029C000C70DD11DFE01EE0FFF1FEE0FFF1FEE0F13
:1029D000FF1FEC55F84D8585807C09F47DC0FE0114
:1029E000EE0FFF1FEE0FFF1FEE0FFF1FEC55F84D10
:1029F0008585807C803C61F0FE01EE0FFF1FEE0FAD
:102A0000FF1FEE0FFF1FEC55F84D858582FD66C058
:102A10008FB7F894F501908190FF03C08FBF712CA0
:102A20005EC0F5019081916090838FBFC182D28298
:102A3000E382F4821582168207831087811006C014
:102A400091E0E114F10419F090E001C091E0F5018A
:102A5000808190FB81F98B7F8083772059F0CC0FA8
:102A6000DD1FCC0FDD1FCC0FDD1FCC55D84D1A8AD2
:102A70001B8A2DC0FE01EE0FFF1FEE0FFF1FEE0F92
:102A8000FF1FEC55F84D8585807C803CA1F4CE017C
:102A9000880F991F880F991F880F991F8055984D8F
:102AA000C7DBBC01C701E5D4892B29F0F501808182
:102AB0008E7F808314C0CC0FDD1FCC0FDD1FCC0FA9
:102AC000DD1FCC55D84D1E861F861A8A1B8A892D7C
:102AD00063DC7724739403C0712C01C0712C872DA3
:102AE000DF91CF911F910F91FF90EF90DF90CF90EA
:102AF000BF90AF909F908F907F900895FF920F931B
:102B00001F93CF93DF93182FF82EFF1CFF24FF1C79
:102B1000C82FCF70D0E0CC0FDD1FCF0DD11DB1DBA2
:102B2000DC01FE01EE0FFF1FEE0FFF1FEE0FFF1F78
:102B3000E055F84D02E005938C9180FF22C08E7F16
:102B40008C931796ED91FC9118973097D1F0FF2058
:102B500059F0CC0FDD1FCC0FDD1FCC0FDD1FCC5586
:102B6000D84D6A897B890AC0CC0FDD1FCC0FDD1FD1
:102B7000CC0FDD1FCC55D84D6E857F85412F81E070
:102B80001995DF91CF911F910F91FF900895CF93E9
:102B9000C82FB4DFEC2FEF70F0E0EE0FFF1F8C2F8B
:102BA000CC0F990B8827990F881F9927E80FF91FD9
:102BB000EE0FFF1FEE0FFF1FEE0FFF1FEC55F84D3E
:102BC0001586CF9108950F93E82FEF70F0E0EE0F88
:102BD000FF1F282F082E000C330B2227330F221F34
:102BE0003327E20FF31FEE0FFF1FEE0FFF1FEE0F55
:102BF000FF1FDF01AC55B84D1D969C911D97946049
:102C00001D969C93E055F84D01E0069377DF81E037
:102C10000F9108951F920F920FB60F9211240BB6C9
:102C20000F920F932F933F934F935F936F937F93E5
:102C30008F939F93AF93BF93EF93FF938091CB04B8
:102C4000882334F480E88093CA040E94B30582C0CC
:102C50008091CB0482FF20C084E08093CA048091DD
:102C6000B82786FF77C08091CC0481FD73C024DB38
:102C7000811170C08091A127813011F457DA6AC0A8
:102C8000843009F067C0E9EBF7E204E00593E1EB7B
:102C9000F7E204E005935EC08091CB0481FF55C04C
:102CA00082E08093CA048091B02786FF53C0809150
:102CB000CC0481FD4FC000DB81114CC08091A12765
:102CC000823041F484E08093A127E0EBF7E202E058
:102CD000069340C0833009F03DC0E9EBF7E204E021
:102CE0000593E1EBF7E204E0059334C080E18093C3
:102CF000CA0481E003DF81E801DF0E948C051092A5
:102D0000C304E4EAF7E2158696E0948783E48587B6
:102D1000158A948B858B8DE597E2808B918BD1D929
:102D200019C08091CB0486FF06C080E48093CA045A
:102D300080E0A8D90FC08091CB0485FF0BC080E252
:102D40008093CA0481E09ED905C08091CB0484FFA2
:102D5000E8CFCCCFFF91EF91BF91AF919F918F9131
:102D60007F916F915F914F913F912F910F910F90B4
:102D70000BBE0F900FBE0F901F9018951F920F92D1
:102D80000FB60F9211240BB60F920F931F932F9330
:102D90003F934F935F936F937F938F939F93AF93E3
:102DA000BF93CF93DF93EF93FF938091CC0481FD8A
:102DB00003C082DA8111C1C082E08093CC0480918B
:102DC000C5048195880FE0EBF7E2E81BF10920814B
:102DD0003181205B37423695279536952795369574
:102DE0002795822F869520FD02C090E001C090E8D3
:102DF000890FE82FEF70F0E0EE0FFF1F282F082E4D
:102E0000000C330B2227330F221F3327E20FF31F4F
:102E1000DF01AA0FBB1FAA0FBB1FAA0FBB1FAC5518
:102E2000B84D1C969C9195FF88C0EE0FFF1FEE0FCA
:102E3000FF1FEE0FFF1FE055F84D00E206938111D2
:102E400077C08091A127843019F47ED93AD975C012
:102E50000091B2271091B3278091FF27909100280D
:102E6000C0919D27D0919E279E01200F311F821770
:102E7000930718F48C010C1B1D0B8091FD2790917A
:102E8000FE27A8016DE577E28C0F9D1F30D3C00FA0
:102E9000D11FC0939D27D0939E270034110569F45C
:102EA00080919F279091A0278C0F9D1F2091FB2739
:102EB0003091FC278217930780F0E5EFF7E2C28795
:102EC000D3870684F785E02D309729F01995811175
:102ED00002C01ED932C02AD930C08091FF279091FC
:102EE0000028C817D907F9F4E0910328F0910428C5
:102EF000309711F40DD921C01995811102C008D95C
:102F00001CC020919F273091A02780919D279091F0
:102F10009E27820F931F80939F279093A027109244
:102F20009D2710929E27E0EBF7E202E0069305C092
:102F3000803811F411D901C02FDAFF91EF91DF91A0
:102F4000CF91BF91AF919F918F917F916F915F9141
:102F50004F913F912F911F910F910F900BBE0F90AA
:102F60000FBE0F901F901895A0E4B6E08FE08C93F1
:102F7000E0E0F8E0808184608083818183638183E5
:102F800080ED97E086A397A312A613A610A611A61C
:102F900014968C911497846014968C9314971496BD
:102FA0008C911497886014968C9308959C01220F3D
:102FB000331F4CE2469FC001479F900D112464E6E9
:102FC00070E06BD2261B370BC90199230CF40196D4
:102FD0009595879508959C01220F331F4CE2469FDB
:102FE000C001479F900D112464E670E056D2C901DC
:102FF000860F971F99230CF4019695958795089550
:10300000CF93DF93EC01DF93CF9382EA90E29F931B
:103010008F93C0D20F900F900F900F90209701F1D7
:103020008DE78C9F90018D9F300D11242750310921
:10303000ADECBCEC4DD2EC01D695C795D695C795B5
:10304000D695C795DF93CF938EEA90E29F938F93A7
:10305000A1D20F900F900F900F908C2F9D2F02C038
:1030600080E090E0DF91CF9108951F93CF93DF939D
:10307000492F441F4427441FC42F282F392F33239F
:103080001CF4319521953109122FD32F1F924F93A4
:103090003F932F9321EC30E23F932F937BD20F90FD
:1030A0000F900F900F900F900F90C13031F4E0E42B
:1030B000F6E08481877F848307C0C11105C0E0E406
:1030C000F6E0848188608483812F9D2F99DF80932F
:1030D0002A0890932B08DF91CF911F9108951F9399
:1030E000CF93DF93492F441F4427441FC42F282F19
:1030F000392F33231CF4319521953109122FD32F09
:103100001F924F933F932F9329ED30E23F932F93DC
:1031100041D20F900F900F900F900F900F90C130F1
:1031200031F4E0E4F6E084818B7F848307C0C11131
:1031300005C0E0E4F6E0848184608483812F9D2FC4
:103140005FDF8093280890932908DF91CF911F912A
:103150000895CF93DF93C82FD0E06D3211F4C0955E
:10316000D095DF93CF9381EF90E29F938F9312D20C
:103170000F900F900F900F90CE01DF91CF91089597
:10318000EF92FF920F931F93CF93DF93EC018B018C
:103190000DDF7C01B801CE011EDFEC01C70165DF48
:1031A000CE019DDFDF91CF911F910F91FF90EF90A6
:1031B00008950F931F93CF93DF9381E08093E707E8
:1031C0001092052800E81AE1D6E0C0E025C01816E4
:1031D00019062CF405978093E7279093E8278091B0
:1031E000E5279091E627181619062CF40597809389
:1031F000E5279093E6276091E5277091E627809177
:10320000E7279091E827BCDF802F912FAD2FBC2FAF
:103210000197A109B109E1F78091E7279091E8278B
:1032200084309105A4F62091E5273091E6272430DB
:1032300031056CF660E070E080E090E0A1DF109274
:10324000E7271092E8271092E5271092E62788E0FA
:1032500080934908DF91CF911F910F910895CF93EB
:10326000DF93CDB7DEB72797CDBFDEBF0E942D011C
:103270000E94970887E08093A200789480E498E009
:103280000E94980F69ED78E180E498E00E940410B4
:10329000E0E4F8E08181887F818386818C7F86836A
:1032A0008681816086838081807F866080830E94A2
:1032B00067085ADE80E090E0D8DE80E090E00FDF23
:1032C00080E280936606109205280F2EFAE18F2E79
:1032D000F1E29F2EF02D0F2EFBE2AF2EF1E2BF2E7A
:1032E000F02D6894222426F8332433F80F2EFFE2C1
:1032F000CF2EF1E2DF2EF02D9E012F5F3F4F79019F
:1033000002E011E20F2EF5EF6F2EF0E27F2EF02D8E
:103310000F2EF5E04F2EF1E25F2EF02DCE0102963A
:103320008C839D83DE011396AE83BF838091052835
:10333000813009F467C008F47FC08230C9F77F92FA
:103340006F9228D1FF92EF921F930F9336D189810C
:103350001F928F935F924F921DD18981CDBFDEBFA7
:10336000833779F5FD81FF932C812F931F930F9362
:1033700024D18A811F928F93A6E1B1E2BF93AF93CC
:1033800009D1FF81FF932E812F931F930F9315D1A6
:103390008B811F928F93A0E1B1E2BF93AF93FAD0DC
:1033A0006A818B81D6DE8093E7279093E8271F926E
:1033B0001F9281EF90E29F938F93ECD0CDBFDEBF41
:1033C000B5CF8136C1F43D813F938C818F931F939C
:1033D0000F93F3D09F819F93AE81AF931F930F9371
:1033E000ECD06A818B81B5DE8093E5279093E62748
:1033F000CDBFDEBF9BCF8B3109F098CF81E08093AA
:10340000052894CF9F928F92C5D06091E527709147
:10341000E6278091E7279091E827B2DE10920528F1
:10342000BF92AF92B7D088E0D10119968C930F90DC
:103430000F900F900F907ACFDF92CF92ABD0FF9288
:10344000EF921F930F93B9D00F900F900F900F90A2
:103450000F900F9089818A3351F4A7E3B1E2BF93B3
:10346000AF9398D082E0809305280F900F90A89595
:103470005DCFAA1BBB1B51E107C0AA1FBB1FA6172C
:10348000B70710F0A61BB70B881F991F5A95A9F70D
:1034900080959095BC01CD01089597FB072E16F4F9
:1034A000009406D077FD08D0E4DF07FC05D03EF499
:1034B000909581959F4F0895709561957F4F0895E0
:1034C000EE0FFF1F881F8BBF0790F691E02D199418
:1034D000A29FB001B39FC001A39F700D811D112455
:1034E000911DB29F700D811D1124911D0895FB0146
:1034F000DC0102C001900D9241505040D8F7089570
:103500000F931F93CF93DF93009731F461157105EB
:1035100019F480E090E039C08B01EC016EE070E0BE
:1035200081E090E006D5FC01892B99F380E8838344
:103530000115110571F00287138781E8838380915B
:10354000062890910728892B21F4E0930628F09310
:1035500007282097C9F0C087D18783818260838341
:103560008091082890910928892B71F4E09308280C
:10357000F093092880910A2890910B28892B21F437
:10358000E0930A28F0930B28CF01DF91CF911F9190
:103590000F910895CF93DF93CDB7DEB7AE014A5FA9
:1035A0005F4FFA0161917191AF018091082890916C
:1035B000092816D0DF91CF910895CF93DF93CDB72F
:1035C000DEB7AE014A5F5F4FFA0161917191AF01C1
:1035D00080910628909107288CD3DF91CF91089590
:1035E0002F923F924F925F926F927F928F929F9213
:1035F000AF92BF92CF92DF92EF92FF920F931F9301
:10360000CF93DF93CDB7DEB72C97CDBFDEBF7C0164
:103610006B018A01FC0116821782838181FFB0C190
:10362000CE0101964C01F7019381F60193FD85913E
:1036300093FF81916F01882309F49EC1853239F48B
:1036400093FD859193FF81916F01853221F4B7013C
:1036500090E024D6E8CF512C312C20E02032A0F489
:103660008B3269F030F4803259F0833269F4206192
:103670002CC08D3239F0803339F4216026C02260AD
:10368000246023C0286021C027FD27C030ED380FFB
:103690003A3078F426FF06C0FAE05F9E300D112420
:1036A000532E13C08AE0389E300D1124332E206231
:1036B0000CC08E3221F426FD5FC1206406C08C361A
:1036C00011F4206802C0883641F4F60193FD85911B
:1036D00093FF81916F018111C1CF982F9F7D9554E8
:1036E000933028F40C5F1F4FFFE3F9830DC083363E
:1036F00031F0833771F0833509F057C021C0F801EC
:10370000808189830E5F1F4F44244394512C5401C0
:1037100014C03801F2E06F0E711CF801A080B18076
:1037200026FF03C0652D70E002C06FEF7FEFC5017B
:103730002C876BD52C0183012C852F77222E16C068
:103740003801F2E06F0E711CF801A080B18026FFF5
:1037500003C0652D70E002C06FEF7FEFC5012C87BD
:1037600042D52C012C852068222E830123FC19C010
:10377000832D90E048165906A0F4B70180E290E04E
:103780008DD53A94F5CFF50127FC859127FE8191DF
:103790005F01B70190E082D531103A94F1E04F1A01
:1037A00051084114510479F7DEC0843611F089368E
:1037B00031F5F80127FF07C0608171818281938113
:1037C0000C5F1F4F08C060817181072E000C880BB1
:1037D000990B0E5F1F4F2F76722E97FF09C09095A1
:1037E0008095709561957F4F8F4F9F4F2068722E07
:1037F0002AE030E0A401A3D5A82EA81843C085373D
:1038000029F42F7EB22E2AE030E025C0F22FF97F76
:10381000BF2E8F36C1F018F4883579F0ADC08037EF
:1038200019F0883721F0A8C02F2F2061B22EB4FEE6
:103830000DC08B2D8460B82E09C024FF0AC09F2FB5
:103840009660B92E06C028E030E005C020E130E0E7
:1038500002C020E132E0F801B7FE07C0608171814B
:10386000828193810C5F1F4F06C06081718180E06F
:1038700090E00E5F1F4FA40162D5A82EA818FB2D63
:10388000FF777F2E76FE0BC0372D3E7FA51450F4B8
:1038900074FE0AC072FC08C0372D3E7E05C0BA2CEB
:1038A000372D03C0BA2C01C0B52C34FF0DC0FE016A
:1038B000EA0DF11D8081803311F4397E09C032FF99
:1038C00006C0B394B39404C0832F867809F0B394F0
:1038D00033FD12C030FF06C05A2CB31418F4530C39
:1038E0005B18B32CB31460F4B70180E290E03C871E
:1038F000D5D4B3943C85F6CFB31410F43B1801C073
:10390000312C34FF11C0B70180E390E03C87C6D46E
:103910003C8532FF16C031FD03C088E790E002C04D
:1039200088E590E0B7010CC0832F867851F031FF15
:1039300002C08BE201C080E237FD8DE2B70190E06A
:10394000ADD4A51430F4B70180E390E0A7D45A9425
:10395000F8CFAA94F401EA0DF11D8081B70190E03F
:103960009DD4A110F6CF332009F45DCEB70180E2DB
:1039700090E094D43A94F7CFF7018681978102C002
:103980008FEF9FEF2C96CDBFDEBFDF91CF911F91C0
:103990000F91FF90EF90DF90CF90BF90AF909F90EE
:1039A0008F907F906F905F904F903F902F900895F1
:1039B00020FD09C0FC0123FD05C022FF02C0738366
:1039C000628351834083089544FD10C046FD10C0BA
:1039D000DB01FC01AA0FBB1FEE1FFF1F1094D1F7E4
:1039E0006A0F7B1F8E1F9F1F31E003C033E001C0B1
:1039F00034E0660F771F881F991F3150D1F7620F8F
:103A0000711D811D911D08950F931F93CF93DF9317
:103A10008C01C80105D4EC0197FD06C0D1D3892BD8
:103A2000C1F7B801CE0172D4CE01DF91CF911F91C1
:103A30000F9108958F929F92AF92BF92CF92DF9293
:103A4000EF92FF920F931F93CF93DF931F92CDB707
:103A5000DEB78C01C62E7A012983E2D3AC0155274B
:103A600029814B32510521F04D32510561F4206816
:103A7000CA94C11002C080E06FC0C8012983D0D3AE
:103A8000298197FDF8CF322F3D7FD32E322F30730F
:103A900039F5803329F5BB24BA94BC0C09F449C02C
:103AA000C8012983BDD3298197FD43C0382F3F7DAD
:103AB000383561F48D2D8264D82ECA94CA94CC20F6
:103AC000C1F1C801ADD397FF0BC033C026FF04C0BE
:103AD0002D2D2260D22E03C03D2D3261D32ECB2C52
:103AE000812C912C540120ED280F283078F0D4FE41
:103AF00003C0B8010BD41AC02A3040F0D6FEF9CF6B
:103B00002F7D3FEE320F3630A0F727504D2DC501E7
:103B1000B4015ADF4B015C018D2D8260D82ECA940E
:103B2000CC2051F0C8017CD397FFDDCFD1FC04C07D
:103B3000A2CF812C912C5401D7FE08C0B094A09440
:103B400090948094811C911CA11CB11C2D2DB50159
:103B5000A401C7012DDF81E00F90DF91CF911F916C
:103B60000F91FF90EF90DF90CF90BF90AF909F901C
:103B70008F9008956F927F928F929F92AF92BF9293
:103B8000CF92DF92EF92FF920F931F93CF93DF9329
:103B9000CDB7DEB7A197CDBFDEBF5C017A01CE0104
:103BA00001966C0180E2F60111928A95E9F7F50120
:103BB000838040E050E0912C712C70E0A1E0B0E0F7
:103BC000F90183FC859183FE81918F01982F9F01DC
:103BD000811103C080E090E07AC08E3519F4411560
:103BE000510549F1E72FF0E0E417F5073CF48D3576
:103BF00059F18D3219F4772001F103C0711001C021
:103C0000982E892F8695869586958601080F111D19
:103C1000892F87703D0101C0660C8A95EAF7F8018B
:103C2000808186298083991559F0991510F49F5F3A
:103C3000E8CF9150E6CF71E004C07724739401C0BF
:103C4000712C4F5F5F4FBCCF772019F08E8180625F
:103C50008E83711103C09924939416C0F6019E01BE
:103C60002F5D3F4F808180958193E217F307D1F755
:103C7000F2CFE114F10429F0F7018083C701019626
:103C80007C016150912CE9F0C50169A3C9D269A1F9
:103C900097FD15C0282F269526952695F601E20F4B
:103CA000F11D208130E0AC014770552702C03595E9
:103CB00027954A95E2F720FDDCCFB50127D3911077
:103CC00089CFE114F10411F0F7011082C801A19627
:103CD000CDBFDEBFDF91CF911F910F91FF90EF908D
:103CE000DF90CF90BF90AF909F908F907F906F901C
:103CF00008954F925F927F928F929F92AF92BF9260
:103D0000CF92DF92EF92FF920F931F93CF93DF93A7
:103D10001F92CDB7DEB76C012B015A01FC01168250
:103D20001782712CF601F380F201F3FC8591F3FE0A
:103D30008191382F2F01882309F4E5C090E0398361
:103D40003FD23981892B19F0C6015EDEEBCF3532C7
:103D500041F4F201F3FC3591F3FE31912F0135323C
:103D600059F4C60139835CD2398197FDCAC038172E
:103D7000C9F2B601CBD2C7C03A3239F4F3FC35915F
:103D8000F3FE31912F0151E001C050E0420110E0FB
:103D900020ED230F2A3088F45260612F70E080E01C
:103DA00090E040E2598310DE162FF401F3FC3591C8
:103DB000F3FE31914F015981EBCF052F232F2401C1
:103DC00051FF03C0111102C09EC01FEF383619F019
:103DD0003C3659F011C0F401F3FC2591F3FE21911A
:103DE0002F01283649F4052F08600460F201F3FC26
:103DF0002591F3FE21912F01222309F484C0622F23
:103E000070E08AE092E02983E3D12981892B09F4CB
:103E10007AC000FD07C0F501E080F180C50102967F
:103E20005C0102C0E12CF12C2E3649F4F6014681EA
:103E3000578160E070E0202FC701BADD73CF2336D1
:103E400089F401FF11E0C601EBD197FD5AC0E114DE
:103E5000F10429F0F7018083C70101967C0111501C
:103E600091F74BC02B3551F49201A701612FC60188
:103E700081DE2C01892B09F040C03AC0C60129839C
:103E8000C3DD298197FD3DC02F3641F128F424364A
:103E900019F1293631F124C0233769F02537E1F0D3
:103EA0001FC0E114F10429F0F7018082C7010196D7
:103EB0007C01115059F0C601B3D14C0197FD06C0E9
:103EC0007FD1892B71F3B601C40120D2E114F10432
:103ED000A1F0F701108211C0006203C0006101C0AF
:103EE0000064202FA701612FC601A4DD811105C048
:103EF000F6018381807329F406C000FD13CF73940B
:103F000011CF772019F0872D90E002C08FEF9FEF3F
:103F10000F90DF91CF911F910F91FF90EF90DF9065
:103F2000CF90BF90AF909F908F907F905F904F9079
:103F300008950F931F93CF93DF93869F8001879FF0
:103F4000100D969F100D1124C8010DD0EC010097A3
:103F500021F0A80160E070E051D1CE01DF91CF9156
:103F60001F910F910895CF93DF938230910510F444
:103F700082E090E0E0910E28F0910F2820E030E000
:103F8000C0E0D0E0309711F14081518148175907C6
:103F9000C0F04817590761F482819381209719F086
:103FA0008A839B832BC080930E2890930F2826C072
:103FB0002115310519F04217530718F49A01BE0173
:103FC000DF01EF010280F381E02DDCCF2115310507
:103FD00009F1281B390B2430310590F412968D918C
:103FE0009C9113976115710521F0FB0182839383E6
:103FF00004C080930E2890930F28FD01329644C090
:10400000FD01E20FF31F81939193225031092D930B
:104010003C933AC020910C2830910D28232B41F479
:10402000209102203091032020930C2830930D28FA
:1040300020910020309101202115310541F42DB748
:104040003EB74091042050910520241B350BE09190
:104050000C28F0910D28E217F307A0F42E1B3F0B5C
:104060002817390778F0AC014E5F5F4F24173507EA
:1040700048F04E0F5F1F40930C2850930D288193FA
:10408000919302C0E0E0F0E0CF01DF91CF9108957D
:104090000F931F93CF93DF93009709F48CC0FC011B
:1040A00032971282138200910E2810910F28011569
:1040B000110581F420813181820F931F20910C28FA
:1040C00030910D282817390779F5E0930C28F093E3
:1040D0000D2871C0D80140E050E0AE17BF0750F482
:1040E00012962D913C911397AD012115310509F1DF
:1040F000D901F3CF9D01DA0122833383608171817D
:10410000860F971F8217930769F4EC012881398184
:10411000260F371F2E5F3F4F208331838A819B817B
:1041200082839383452B29F4E0930E28F0930F2884
:1041300042C01296ED93FC931397ED01499159916A
:104140009E01240F351FE217F30771F480819181DE
:10415000840F951F02968D939C9311978281938172
:1041600012968D939C931397E0E0F0E0D80112969D
:104170008D919C911397009719F0F8018C01F6CF5F
:104180008D919C9198012E5F3F4F820F931F20913C
:104190000C2830910D282817390769F4309729F435
:1041A00010920E2810920F2802C0128213820093E0
:1041B0000C2810930D28DF91CF911F910F91089536
:1041C00091111BC1803219F089508550D0F70895A4
:1041D000FC010590061621F00020D9F7C0010895D2
:1041E0003197CF010895FC01059061507040011096
:1041F000D8F7809590958E0F9F1F0895DC0101C020
:104200006D9341505040E0F70895FC0161507040BB
:1042100001900110D8F7809590958E0F9F1F0895FB
:10422000CF93DF93EC012B8120FF33C026FF0AC020
:104230002F7B2B838E819F8101968E839F838A8122
:1042400090E029C022FF0FC0E881F9818081082E0B
:10425000000C990B009719F420622B831AC0319639
:10426000E883F9830EC0EA85FB85199597FF09C09D
:104270002B81019611F080E201C080E1822B8B83BB
:1042800008C02E813F812F5F3F4F2E833F839927A8
:1042900002C08FEF9FEFDF91CF9108950F931F938F
:1042A000CF93DF93FB01238121FD03C08FEF9FEFAD
:1042B00028C022FF16C046815781248135814217CC
:1042C000530744F4A081B1819D012F5F3F4F2083AC
:1042D00031838C93268137812F5F3F4F268337832D
:1042E00010C0EB01092F182F0084F185E02D1995DE
:1042F000892BE1F68E819F8101968E839F83812F8A
:10430000902FDF91CF911F910F910895FB01238191
:1043100020FF12C026FD10C08F3F3FEF930761F0D2
:1043200082832F7D206423832681378121503109A8
:1043300026833783992708958FEF9FEF0895FA0119
:10434000AA27283051F1203181F1E8946F936E7FD4
:104350006E5F7F4F8F4F9F4FAF4FB1E03ED0B4E0C5
:104360003CD0670F781F891F9A1FA11D680F791F06
:104370008A1F911DA11D6A0F711D811D911DA11D17
:1043800020D009F468943F912AE0269F1124301927
:10439000305D3193DEF6CF010895462F4770405DC2
:1043A0004193B3E00FD0C9F7F6CF462F4F70405D71
:1043B0004A3318F0495D31FD4052419302D0A9F7CC
:1043C000EACFB4E0A6959795879577956795BA95C6
:1043D000C9F700976105710508959B01AC010A2E8C
:1043E00006945795479537952795BA95C9F7620F63
:1043F000731F841F951FA01D08959927882708956E
:04440000F894FFCF5E
:1044040000001028200078031103FF0101020E03AD
:104414004E02F9010302010200006A201E20262038
:1044240022201020062009024300020100C03209A4
:10443400040000010202010005240010010424020A
:104444000205240600010524010301070582034037
:10445400001009040100020A00000007058102405F
:1044640000000705020240000000120100020200E1
:104474000040EB03042400010102000100030000DA
:104484000000000000000000000000000000000028
:104494004344430041544D454C20415346000403DA
:1044A400090473706565643A2025640A0D006D6F14
:1044B400746F7253657474696E673A2025640A0DCB
:1044C400004C2053706565643A2025642C205369A0
:1044D400676E3A2025640A0D0052205370656564A6
:1044E4003A2025642C205369676E3A2025640A0D0E
:1044F4000025640A00526563656976696E672E0A51
:104504000D002563004563686F3A2025630A0D009A
:104514004563686F3A2025630A004166746572201A
:104524004D6573736167652E0A0D00650A0D0049B8
:0C453400646C652E0A0D00720A0D000078
:00000001FF
